{
  "_format": "hh-sol-artifact-1",
  "contractName": "Arbie",
  "sourceName": "contracts/Arbie.sol",
  "abi": [
    {
      "inputs": [
        {
          "internalType": "contract IUniswapV2Router01",
          "name": "router_",
          "type": "address"
        }
      ],
      "stateMutability": "nonpayable",
      "type": "constructor"
    },
    {
      "inputs": [
        {
          "internalType": "uint256",
          "name": "amountIn",
          "type": "uint256"
        },
        {
          "internalType": "address[]",
          "name": "pools",
          "type": "address[]"
        },
        {
          "internalType": "enum Arbie.PoolType[]",
          "name": "poolTypes",
          "type": "uint8[]"
        },
        {
          "internalType": "address[]",
          "name": "path",
          "type": "address[]"
        }
      ],
      "name": "checkOutGivenIn",
      "outputs": [
        {
          "internalType": "uint256",
          "name": "amount",
          "type": "uint256"
        }
      ],
      "stateMutability": "view",
      "type": "function"
    },
    {
      "inputs": [
        {
          "internalType": "contract IUniswapV2Pair",
          "name": "pair",
          "type": "address"
        },
        {
          "internalType": "address",
          "name": "tokenIn",
          "type": "address"
        },
        {
          "internalType": "uint256",
          "name": "tokenAmountIn",
          "type": "uint256"
        },
        {
          "internalType": "address",
          "name": "tokenOut",
          "type": "address"
        }
      ],
      "name": "pairOutGivenIn",
      "outputs": [
        {
          "internalType": "uint256",
          "name": "tokenAmountOut",
          "type": "uint256"
        }
      ],
      "stateMutability": "view",
      "type": "function"
    },
    {
      "inputs": [
        {
          "internalType": "contract IBPool",
          "name": "pool",
          "type": "address"
        },
        {
          "internalType": "address",
          "name": "tokenIn",
          "type": "address"
        },
        {
          "internalType": "uint256",
          "name": "tokenAmountIn",
          "type": "uint256"
        },
        {
          "internalType": "address",
          "name": "tokenOut",
          "type": "address"
        }
      ],
      "name": "poolOutGivenIn",
      "outputs": [
        {
          "internalType": "uint256",
          "name": "tokenAmountOut",
          "type": "uint256"
        }
      ],
      "stateMutability": "view",
      "type": "function"
    },
    {
      "inputs": [
        {
          "internalType": "uint256",
          "name": "amountIn",
          "type": "uint256"
        },
        {
          "internalType": "address[]",
          "name": "pools",
          "type": "address[]"
        },
        {
          "internalType": "enum Arbie.PoolType[]",
          "name": "poolTypes",
          "type": "uint8[]"
        },
        {
          "internalType": "address[]",
          "name": "path",
          "type": "address[]"
        }
      ],
      "name": "swap",
      "outputs": [
        {
          "internalType": "uint256[]",
          "name": "amounts",
          "type": "uint256[]"
        }
      ],
      "stateMutability": "nonpayable",
      "type": "function"
    }
  ],
  "bytecode": "0x608060405234801561001057600080fd5b506040516115373803806115378339818101604052602081101561003357600080fd5b8101908080519060200190929190505050806000806101000a81548173ffffffffffffffffffffffffffffffffffffffff021916908373ffffffffffffffffffffffffffffffffffffffff160217905550506114a3806100946000396000f3fe608060405234801561001057600080fd5b506004361061004c5760003560e01c8063167ef6561461005157806385ae5282146100f3578063b0c6e83214610275578063dcb0b464146103b6575b600080fd5b6100dd6004803603608081101561006757600080fd5b81019080803573ffffffffffffffffffffffffffffffffffffffff169060200190929190803573ffffffffffffffffffffffffffffffffffffffff16906020019092919080359060200190929190803573ffffffffffffffffffffffffffffffffffffffff169060200190929190505050610458565b6040518082815260200191505060405180910390f35b61021e6004803603608081101561010957600080fd5b81019080803590602001909291908035906020019064010000000081111561013057600080fd5b82018360208201111561014257600080fd5b8035906020019184602083028401116401000000008311171561016457600080fd5b90919293919293908035906020019064010000000081111561018557600080fd5b82018360208201111561019757600080fd5b803590602001918460208302840111640100000000831117156101b957600080fd5b9091929391929390803590602001906401000000008111156101da57600080fd5b8201836020820111156101ec57600080fd5b8035906020019184602083028401116401000000008311171561020e57600080fd5b9091929391929390505050610534565b6040518080602001828103825283818151815260200191508051906020019060200280838360005b83811015610261578082015181840152602081019050610246565b505050509050019250505060405180910390f35b6103a06004803603608081101561028b57600080fd5b8101908080359060200190929190803590602001906401000000008111156102b257600080fd5b8201836020820111156102c457600080fd5b803590602001918460208302840111640100000000831117156102e657600080fd5b90919293919293908035906020019064010000000081111561030757600080fd5b82018360208201111561031957600080fd5b8035906020019184602083028401116401000000008311171561033b57600080fd5b90919293919293908035906020019064010000000081111561035c57600080fd5b82018360208201111561036e57600080fd5b8035906020019184602083028401116401000000008311171561039057600080fd5b9091929391929390505050610652565b6040518082815260200191505060405180910390f35b610442600480360360808110156103cc57600080fd5b81019080803573ffffffffffffffffffffffffffffffffffffffff169060200190929190803573ffffffffffffffffffffffffffffffffffffffff16906020019092919080359060200190929190803573ffffffffffffffffffffffffffffffffffffffff169060200190929190505050610689565b6040518082815260200191505060405180910390f35b6000806000610468878786610a4d565b9150915060008054906101000a900473ffffffffffffffffffffffffffffffffffffffff1673ffffffffffffffffffffffffffffffffffffffff1663054d50d48684846040518463ffffffff1660e01b815260040180848152602001838152602001828152602001935050505060206040518083038186803b1580156104ed57600080fd5b505afa158015610501573d6000803e3d6000fd5b505050506040513d602081101561051757600080fd5b810190808051906020019092919050505092505050949350505050565b606061054588888888888888610b6c565b90506105b98383600081811061055757fe5b9050602002013573ffffffffffffffffffffffffffffffffffffffff16338989600081811061058257fe5b9050602002013573ffffffffffffffffffffffffffffffffffffffff16846000815181106105ac57fe5b6020026020010151610f3f565b61064781888880806020026020016040519081016040528093929190818152602001838360200280828437600081840152601f19601f82011690508083019250505050505050858580806020026020016040519081016040528093929190818152602001838360200280828437600081840152601f19601f8201169050808301925050505050505033611087565b979650505050505050565b600061066388888888888888610b6c565b600184849050038151811061067457fe5b60200260200101519050979650505050505050565b60008473ffffffffffffffffffffffffffffffffffffffff1663ba9530a68673ffffffffffffffffffffffffffffffffffffffff1663f8b2cb4f876040518263ffffffff1660e01b8152600401808273ffffffffffffffffffffffffffffffffffffffff16815260200191505060206040518083038186803b15801561070e57600080fd5b505afa158015610722573d6000803e3d6000fd5b505050506040513d602081101561073857600080fd5b81019080805190602001909291905050508773ffffffffffffffffffffffffffffffffffffffff1663948d8ce6886040518263ffffffff1660e01b8152600401808273ffffffffffffffffffffffffffffffffffffffff16815260200191505060206040518083038186803b1580156107b057600080fd5b505afa1580156107c4573d6000803e3d6000fd5b505050506040513d60208110156107da57600080fd5b81019080805190602001909291905050508873ffffffffffffffffffffffffffffffffffffffff1663f8b2cb4f876040518263ffffffff1660e01b8152600401808273ffffffffffffffffffffffffffffffffffffffff16815260200191505060206040518083038186803b15801561085257600080fd5b505afa158015610866573d6000803e3d6000fd5b505050506040513d602081101561087c57600080fd5b81019080805190602001909291905050508973ffffffffffffffffffffffffffffffffffffffff1663948d8ce6886040518263ffffffff1660e01b8152600401808273ffffffffffffffffffffffffffffffffffffffff16815260200191505060206040518083038186803b1580156108f457600080fd5b505afa158015610908573d6000803e3d6000fd5b505050506040513d602081101561091e57600080fd5b8101908080519060200190929190505050888b73ffffffffffffffffffffffffffffffffffffffff1663d4cadf686040518163ffffffff1660e01b815260040160206040518083038186803b15801561097657600080fd5b505afa15801561098a573d6000803e3d6000fd5b505050506040513d60208110156109a057600080fd5b81019080805190602001909291905050506040518763ffffffff1660e01b815260040180878152602001868152602001858152602001848152602001838152602001828152602001965050505050505060206040518083038186803b158015610a0857600080fd5b505afa158015610a1c573d6000803e3d6000fd5b505050506040513d6020811015610a3257600080fd5b81019080805190602001909291905050509050949350505050565b6000806000610a5c85856112d9565b5090506000808773ffffffffffffffffffffffffffffffffffffffff16630902f1ac6040518163ffffffff1660e01b815260040160606040518083038186803b158015610aa857600080fd5b505afa158015610abc573d6000803e3d6000fd5b505050506040513d6060811015610ad257600080fd5b81019080805190602001909291908051906020019092919080519060200190929190505050506dffffffffffffffffffffffffffff1691506dffffffffffffffffffffffffffff1691508273ffffffffffffffffffffffffffffffffffffffff168773ffffffffffffffffffffffffffffffffffffffff1614610b56578082610b59565b81815b8095508196505050505050935093915050565b60606002878790501015610be8576040517f08c379a000000000000000000000000000000000000000000000000000000000815260040180806020018281038252600d8152602001807f494e56414c494420504f4f4c530000000000000000000000000000000000000081525060200191505060405180910390fd5b848490508787905014610c63576040517f08c379a00000000000000000000000000000000000000000000000000000000081526004018080602001828103825260128152602001807f494e56414c494420504f4f4c205459504553000000000000000000000000000081525060200191505060405180910390fd5b828290506001888890500114610ce1576040517f08c379a000000000000000000000000000000000000000000000000000000000815260040180806020018281038252600c8152602001807f494e56414c49442050415448000000000000000000000000000000000000000081525060200191505060405180910390fd5b8282905067ffffffffffffffff81118015610cfb57600080fd5b50604051908082528060200260200182016040528015610d2a5781602001602082028036833780820191505090505b5090508781600081518110610d3b57fe5b60200260200101818152505060005b87879050811015610f33576000868683818110610d6357fe5b90506020020135600181118015610d7957600080fd5b50905060006001811115610d8957fe5b816001811115610d9557fe5b1415610e5157610e35898984818110610daa57fe5b9050602002013573ffffffffffffffffffffffffffffffffffffffff16868685818110610dd357fe5b9050602002013573ffffffffffffffffffffffffffffffffffffffff16858581518110610dfc57fe5b6020026020010151888860018801818110610e1357fe5b9050602002013573ffffffffffffffffffffffffffffffffffffffff16610458565b836001840181518110610e4457fe5b6020026020010181815250505b600180811115610e5d57fe5b816001811115610e6957fe5b1415610f2557610f09898984818110610e7e57fe5b9050602002013573ffffffffffffffffffffffffffffffffffffffff16868685818110610ea757fe5b9050602002013573ffffffffffffffffffffffffffffffffffffffff16858581518110610ed057fe5b6020026020010151888860018801818110610ee757fe5b9050602002013573ffffffffffffffffffffffffffffffffffffffff16610689565b836001840181518110610f1857fe5b6020026020010181815250505b508080600101915050610d4a565b50979650505050505050565b60008473ffffffffffffffffffffffffffffffffffffffff166323b872dd8585856040518463ffffffff1660e01b8152600401808473ffffffffffffffffffffffffffffffffffffffff1681526020018373ffffffffffffffffffffffffffffffffffffffff1681526020018281526020019350505050602060405180830381600087803b158015610fd057600080fd5b505af1158015610fe4573d6000803e3d6000fd5b505050506040513d6020811015610ffa57600080fd5b8101908080519060200190929190505050905080611080576040517f08c379a00000000000000000000000000000000000000000000000000000000081526004018080602001828103825260148152602001807f5452414e534645525f46524f4d5f4641494c454400000000000000000000000081525060200191505060405180910390fd5b5050505050565b60005b83518110156112d2576000808483815181106110a257fe5b60200260200101518560018501815181106110b957fe5b60200260200101519150915060006110d183836112d9565b50905060008860018601815181106110e557fe5b602002602001015190506000808373ffffffffffffffffffffffffffffffffffffffff168673ffffffffffffffffffffffffffffffffffffffff161461112d57826000611131565b6000835b91509150600060018b510388106111485788611160565b8a600189018151811061115757fe5b60200260200101515b90508a888151811061116e57fe5b602002602001015173ffffffffffffffffffffffffffffffffffffffff1663022c0d9f848484600067ffffffffffffffff811180156111ac57600080fd5b506040519080825280601f01601f1916602001820160405280156111df5781602001600182028036833780820191505090505b506040518563ffffffff1660e01b8152600401808581526020018481526020018373ffffffffffffffffffffffffffffffffffffffff16815260200180602001828103825283818151815260200191508051906020019080838360005b8381101561125757808201518184015260208101905061123c565b50505050905090810190601f1680156112845780820380516001836020036101000a031916815260200191505b5095505050505050600060405180830381600087803b1580156112a657600080fd5b505af11580156112ba573d6000803e3d6000fd5b5050505050505050505050808060010191505061108a565b5050505050565b6000808273ffffffffffffffffffffffffffffffffffffffff168473ffffffffffffffffffffffffffffffffffffffff16141561137e576040517f08c379a00000000000000000000000000000000000000000000000000000000081526004018080602001828103825260138152602001807f4944454e544943414c5f4144445245535345530000000000000000000000000081525060200191505060405180910390fd5b8273ffffffffffffffffffffffffffffffffffffffff168473ffffffffffffffffffffffffffffffffffffffff16106113b85782846113bb565b83835b8092508193505050600073ffffffffffffffffffffffffffffffffffffffff168273ffffffffffffffffffffffffffffffffffffffff161415611466576040517f08c379a000000000000000000000000000000000000000000000000000000000815260040180806020018281038252600c8152602001807f5a45524f5f41444452455353000000000000000000000000000000000000000081525060200191505060405180910390fd5b925092905056fea264697066735822122065c54f31e0860e1ab7a41a8a5b313d6f948e2549cadff9e908e6812a15871d5f64736f6c63430007030033",
  "linkReferences": {},
  "deployedLinkReferences": {}
}