{
  "_format": "hh-sol-artifact-1",
  "contractName": "Arbie",
  "sourceName": "contracts/Arbie.sol",
  "abi": [
    {
      "inputs": [
        {
          "internalType": "contract IUniswapV2Router01",
          "name": "router_",
          "type": "address"
        }
      ],
      "stateMutability": "nonpayable",
      "type": "constructor"
    },
    {
      "inputs": [
        {
          "internalType": "uint256",
          "name": "amountIn",
          "type": "uint256"
        },
        {
          "internalType": "address[]",
          "name": "pools",
          "type": "address[]"
        },
        {
          "internalType": "enum Arbie.PoolType[]",
          "name": "poolTypes",
          "type": "uint8[]"
        },
        {
          "internalType": "address[]",
          "name": "path",
          "type": "address[]"
        }
      ],
      "name": "checkOutGivenIn",
      "outputs": [
        {
          "internalType": "uint256",
          "name": "",
          "type": "uint256"
        }
      ],
      "stateMutability": "view",
      "type": "function"
    },
    {
      "inputs": [
        {
          "internalType": "contract IUniswapV2Pair",
          "name": "pair",
          "type": "address"
        },
        {
          "internalType": "address",
          "name": "tokenIn",
          "type": "address"
        },
        {
          "internalType": "uint256",
          "name": "tokenAmountIn",
          "type": "uint256"
        },
        {
          "internalType": "address",
          "name": "tokenOut",
          "type": "address"
        }
      ],
      "name": "outGivenIn",
      "outputs": [
        {
          "internalType": "uint256",
          "name": "tokenAmountOut",
          "type": "uint256"
        }
      ],
      "stateMutability": "view",
      "type": "function"
    },
    {
      "inputs": [
        {
          "internalType": "contract IBPool",
          "name": "pool",
          "type": "address"
        },
        {
          "internalType": "address",
          "name": "tokenIn",
          "type": "address"
        },
        {
          "internalType": "uint256",
          "name": "tokenAmountIn",
          "type": "uint256"
        },
        {
          "internalType": "address",
          "name": "tokenOut",
          "type": "address"
        }
      ],
      "name": "poolOutGivenIn",
      "outputs": [
        {
          "internalType": "uint256",
          "name": "tokenAmountOut",
          "type": "uint256"
        }
      ],
      "stateMutability": "view",
      "type": "function"
    }
  ],
  "bytecode": "0x608060405234801561001057600080fd5b506040516110df3803806110df8339818101604052602081101561003357600080fd5b8101908080519060200190929190505050806000806101000a81548173ffffffffffffffffffffffffffffffffffffffff021916908373ffffffffffffffffffffffffffffffffffffffff1602179055506100cc6040518060400160405280600c81526020017f4465706c6f7920417262696500000000000000000000000000000000000000008152506100d260201b610ac11760201c565b506101ff565b6101d3816040516024018080602001828103825283818151815260200191508051906020019080838360005b838110156101195780820151818401526020810190506100fe565b50505050905090810190601f1680156101465780820380516001836020036101000a031916815260200191505b50925050506040516020818303038152906040527f41304fac000000000000000000000000000000000000000000000000000000007bffffffffffffffffffffffffffffffffffffffffffffffffffffffff19166020820180517bffffffffffffffffffffffffffffffffffffffffffffffffffffffff83818316178352505050506101d660201b60201c565b50565b60008151905060006a636f6e736f6c652e6c6f679050602083016000808483855afa5050505050565b610ed18061020e6000396000f3fe608060405234801561001057600080fd5b50600436106100415760003560e01c8063093d716314610046578063b0c6e832146100e8578063dcb0b46414610229575b600080fd5b6100d26004803603608081101561005c57600080fd5b81019080803573ffffffffffffffffffffffffffffffffffffffff169060200190929190803573ffffffffffffffffffffffffffffffffffffffff16906020019092919080359060200190929190803573ffffffffffffffffffffffffffffffffffffffff1690602001909291905050506102cb565b6040518082815260200191505060405180910390f35b610213600480360360808110156100fe57600080fd5b81019080803590602001909291908035906020019064010000000081111561012557600080fd5b82018360208201111561013757600080fd5b8035906020019184602083028401116401000000008311171561015957600080fd5b90919293919293908035906020019064010000000081111561017a57600080fd5b82018360208201111561018c57600080fd5b803590602001918460208302840111640100000000831117156101ae57600080fd5b9091929391929390803590602001906401000000008111156101cf57600080fd5b8201836020820111156101e157600080fd5b8035906020019184602083028401116401000000008311171561020357600080fd5b90919293919293905050506103a7565b6040518082815260200191505060405180910390f35b6102b56004803603608081101561023f57600080fd5b81019080803573ffffffffffffffffffffffffffffffffffffffff169060200190929190803573ffffffffffffffffffffffffffffffffffffffff16906020019092919080359060200190929190803573ffffffffffffffffffffffffffffffffffffffff1690602001909291905050506106fd565b6040518082815260200191505060405180910390f35b60008060006102db878786610bbf565b9150915060008054906101000a900473ffffffffffffffffffffffffffffffffffffffff1673ffffffffffffffffffffffffffffffffffffffff1663054d50d48684846040518463ffffffff1660e01b815260040180848152602001838152602001828152602001935050505060206040518083038186803b15801561036057600080fd5b505afa158015610374573d6000803e3d6000fd5b505050506040513d602081101561038a57600080fd5b810190808051906020019092919050505092505050949350505050565b60006103e76040518060400160405280600c81526020017f4465706c6f792041726269650000000000000000000000000000000000000000815250610ac1565b6002878790501015610461576040517f08c379a000000000000000000000000000000000000000000000000000000000815260040180806020018281038252600d8152602001807f494e56414c494420504f4f4c530000000000000000000000000000000000000081525060200191505060405180910390fd5b8484905087879050146104dc576040517f08c379a00000000000000000000000000000000000000000000000000000000081526004018080602001828103825260128152602001807f494e56414c494420504f4f4c205459504553000000000000000000000000000081525060200191505060405180910390fd5b82829050600188889050011461055a576040517f08c379a000000000000000000000000000000000000000000000000000000000815260040180806020018281038252600c8152602001807f494e56414c49442050415448000000000000000000000000000000000000000081525060200191505060405180910390fd5b60005b878790508110156106ee57600086868381811061057657fe5b9050602002013560018111801561058c57600080fd5b5090506000600181111561059c57fe5b8160018111156105a857fe5b1415610638576106358989848181106105bd57fe5b9050602002013573ffffffffffffffffffffffffffffffffffffffff168686858181106105e657fe5b9050602002013573ffffffffffffffffffffffffffffffffffffffff168c88886001880181811061061357fe5b9050602002013573ffffffffffffffffffffffffffffffffffffffff166102cb565b99505b60018081111561064457fe5b81600181111561065057fe5b14156106e0576106dd89898481811061066557fe5b9050602002013573ffffffffffffffffffffffffffffffffffffffff1686868581811061068e57fe5b9050602002013573ffffffffffffffffffffffffffffffffffffffff168c8888600188018181106106bb57fe5b9050602002013573ffffffffffffffffffffffffffffffffffffffff166106fd565b99505b50808060010191505061055d565b50879050979650505050505050565b60008473ffffffffffffffffffffffffffffffffffffffff1663ba9530a68673ffffffffffffffffffffffffffffffffffffffff1663f8b2cb4f876040518263ffffffff1660e01b8152600401808273ffffffffffffffffffffffffffffffffffffffff16815260200191505060206040518083038186803b15801561078257600080fd5b505afa158015610796573d6000803e3d6000fd5b505050506040513d60208110156107ac57600080fd5b81019080805190602001909291905050508773ffffffffffffffffffffffffffffffffffffffff1663948d8ce6886040518263ffffffff1660e01b8152600401808273ffffffffffffffffffffffffffffffffffffffff16815260200191505060206040518083038186803b15801561082457600080fd5b505afa158015610838573d6000803e3d6000fd5b505050506040513d602081101561084e57600080fd5b81019080805190602001909291905050508873ffffffffffffffffffffffffffffffffffffffff1663f8b2cb4f876040518263ffffffff1660e01b8152600401808273ffffffffffffffffffffffffffffffffffffffff16815260200191505060206040518083038186803b1580156108c657600080fd5b505afa1580156108da573d6000803e3d6000fd5b505050506040513d60208110156108f057600080fd5b81019080805190602001909291905050508973ffffffffffffffffffffffffffffffffffffffff1663948d8ce6886040518263ffffffff1660e01b8152600401808273ffffffffffffffffffffffffffffffffffffffff16815260200191505060206040518083038186803b15801561096857600080fd5b505afa15801561097c573d6000803e3d6000fd5b505050506040513d602081101561099257600080fd5b8101908080519060200190929190505050888b73ffffffffffffffffffffffffffffffffffffffff1663d4cadf686040518163ffffffff1660e01b815260040160206040518083038186803b1580156109ea57600080fd5b505afa1580156109fe573d6000803e3d6000fd5b505050506040513d6020811015610a1457600080fd5b81019080805190602001909291905050506040518763ffffffff1660e01b815260040180878152602001868152602001858152602001848152602001838152602001828152602001965050505050505060206040518083038186803b158015610a7c57600080fd5b505afa158015610a90573d6000803e3d6000fd5b505050506040513d6020811015610aa657600080fd5b81019080805190602001909291905050509050949350505050565b610bbc816040516024018080602001828103825283818151815260200191508051906020019080838360005b83811015610b08578082015181840152602081019050610aed565b50505050905090810190601f168015610b355780820380516001836020036101000a031916815260200191505b50925050506040516020818303038152906040527f41304fac000000000000000000000000000000000000000000000000000000007bffffffffffffffffffffffffffffffffffffffffffffffffffffffff19166020820180517bffffffffffffffffffffffffffffffffffffffffffffffffffffffff8381831617835250505050610cde565b50565b6000806000610bce8585610d07565b5090506000808773ffffffffffffffffffffffffffffffffffffffff16630902f1ac6040518163ffffffff1660e01b815260040160606040518083038186803b158015610c1a57600080fd5b505afa158015610c2e573d6000803e3d6000fd5b505050506040513d6060811015610c4457600080fd5b81019080805190602001909291908051906020019092919080519060200190929190505050506dffffffffffffffffffffffffffff1691506dffffffffffffffffffffffffffff1691508273ffffffffffffffffffffffffffffffffffffffff168773ffffffffffffffffffffffffffffffffffffffff1614610cc8578082610ccb565b81815b8095508196505050505050935093915050565b60008151905060006a636f6e736f6c652e6c6f679050602083016000808483855afa5050505050565b6000808273ffffffffffffffffffffffffffffffffffffffff168473ffffffffffffffffffffffffffffffffffffffff161415610dac576040517f08c379a00000000000000000000000000000000000000000000000000000000081526004018080602001828103825260138152602001807f4944454e544943414c5f4144445245535345530000000000000000000000000081525060200191505060405180910390fd5b8273ffffffffffffffffffffffffffffffffffffffff168473ffffffffffffffffffffffffffffffffffffffff1610610de6578284610de9565b83835b8092508193505050600073ffffffffffffffffffffffffffffffffffffffff168273ffffffffffffffffffffffffffffffffffffffff161415610e94576040517f08c379a000000000000000000000000000000000000000000000000000000000815260040180806020018281038252600c8152602001807f5a45524f5f41444452455353000000000000000000000000000000000000000081525060200191505060405180910390fd5b925092905056fea2646970667358221220ecf418c54db2cadcfc8da64ca143f0d39310da29746e3d374b0ea6d20336ba5d64736f6c63430007030033",
  "linkReferences": {},
  "deployedLinkReferences": {}
}