{
  "_format": "hh-sol-artifact-1",
  "contractName": "Arbie",
  "sourceName": "contracts/Arbie.sol",
  "abi": [
    {
      "inputs": [
        {
          "internalType": "contract IUniswapV2Router01",
          "name": "router_",
          "type": "address"
        }
      ],
      "stateMutability": "nonpayable",
      "type": "constructor"
    },
    {
      "inputs": [
        {
          "internalType": "uint256",
          "name": "amountIn",
          "type": "uint256"
        },
        {
          "internalType": "address[]",
          "name": "pools",
          "type": "address[]"
        },
        {
          "internalType": "address[]",
          "name": "path",
          "type": "address[]"
        }
      ],
      "name": "checkOutGivenIn",
      "outputs": [
        {
          "internalType": "uint256",
          "name": "amount",
          "type": "uint256"
        }
      ],
      "stateMutability": "view",
      "type": "function"
    },
    {
      "inputs": [
        {
          "internalType": "contract IUniswapV2Pair",
          "name": "pair",
          "type": "address"
        },
        {
          "internalType": "address",
          "name": "tokenIn",
          "type": "address"
        },
        {
          "internalType": "uint256",
          "name": "tokenAmountIn",
          "type": "uint256"
        },
        {
          "internalType": "address",
          "name": "tokenOut",
          "type": "address"
        }
      ],
      "name": "pairOutGivenIn",
      "outputs": [
        {
          "internalType": "uint256",
          "name": "tokenAmountOut",
          "type": "uint256"
        }
      ],
      "stateMutability": "view",
      "type": "function"
    },
    {
      "inputs": [
        {
          "internalType": "uint256",
          "name": "amountIn",
          "type": "uint256"
        },
        {
          "internalType": "address[]",
          "name": "pools",
          "type": "address[]"
        },
        {
          "internalType": "address[]",
          "name": "path",
          "type": "address[]"
        }
      ],
      "name": "swap",
      "outputs": [
        {
          "internalType": "uint256[]",
          "name": "amounts",
          "type": "uint256[]"
        }
      ],
      "stateMutability": "nonpayable",
      "type": "function"
    }
  ],
  "bytecode": "0x608060405234801561001057600080fd5b50604051610e7b380380610e7b8339818101604052602081101561003357600080fd5b8101908080519060200190929190505050806000806101000a81548173ffffffffffffffffffffffffffffffffffffffff021916908373ffffffffffffffffffffffffffffffffffffffff16021790555050610de7806100946000396000f3fe608060405234801561001057600080fd5b50600436106100415760003560e01c806305fcfdb0146100465780631047311f14610132578063167ef6561461025f575b600080fd5b61011c6004803603606081101561005c57600080fd5b81019080803590602001909291908035906020019064010000000081111561008357600080fd5b82018360208201111561009557600080fd5b803590602001918460208302840111640100000000831117156100b757600080fd5b9091929391929390803590602001906401000000008111156100d857600080fd5b8201836020820111156100ea57600080fd5b8035906020019184602083028401116401000000008311171561010c57600080fd5b9091929391929390505050610301565b6040518082815260200191505060405180910390f35b6102086004803603606081101561014857600080fd5b81019080803590602001909291908035906020019064010000000081111561016f57600080fd5b82018360208201111561018157600080fd5b803590602001918460208302840111640100000000831117156101a357600080fd5b9091929391929390803590602001906401000000008111156101c457600080fd5b8201836020820111156101d657600080fd5b803590602001918460208302840111640100000000831117156101f857600080fd5b9091929391929390505050610334565b6040518080602001828103825283818151815260200191508051906020019060200280838360005b8381101561024b578082015181840152602081019050610230565b505050509050019250505060405180910390f35b6102eb6004803603608081101561027557600080fd5b81019080803573ffffffffffffffffffffffffffffffffffffffff169060200190929190803573ffffffffffffffffffffffffffffffffffffffff16906020019092919080359060200190929190803573ffffffffffffffffffffffffffffffffffffffff16906020019092919050505061044e565b6040518082815260200191505060405180910390f35b6000610310868686868661052a565b600184849050038151811061032157fe5b6020026020010151905095945050505050565b6060610343868686868661052a565b90506103b78383600081811061035557fe5b9050602002013573ffffffffffffffffffffffffffffffffffffffff16338787600081811061038057fe5b9050602002013573ffffffffffffffffffffffffffffffffffffffff16846000815181106103aa57fe5b6020026020010151610764565b61044581868680806020026020016040519081016040528093929190818152602001838360200280828437600081840152601f19601f82011690508083019250505050505050858580806020026020016040519081016040528093929190818152602001838360200280828437600081840152601f19601f82011690508083019250505050505050336108ac565b95945050505050565b600080600061045e878786610afe565b9150915060008054906101000a900473ffffffffffffffffffffffffffffffffffffffff1673ffffffffffffffffffffffffffffffffffffffff1663054d50d48684846040518463ffffffff1660e01b815260040180848152602001838152602001828152602001935050505060206040518083038186803b1580156104e357600080fd5b505afa1580156104f7573d6000803e3d6000fd5b505050506040513d602081101561050d57600080fd5b810190808051906020019092919050505092505050949350505050565b606060028585905010156105a6576040517f08c379a000000000000000000000000000000000000000000000000000000000815260040180806020018281038252600d8152602001807f494e56414c494420504f4f4c530000000000000000000000000000000000000081525060200191505060405180910390fd5b828290506001868690500114610624576040517f08c379a000000000000000000000000000000000000000000000000000000000815260040180806020018281038252600c8152602001807f494e56414c49442050415448000000000000000000000000000000000000000081525060200191505060405180910390fd5b8282905067ffffffffffffffff8111801561063e57600080fd5b5060405190808252806020026020018201604052801561066d5781602001602082028036833780820191505090505b509050858160008151811061067e57fe5b60200260200101818152505060005b8585905081101561075a576107328686838181106106a757fe5b9050602002013573ffffffffffffffffffffffffffffffffffffffff168585848181106106d057fe5b9050602002013573ffffffffffffffffffffffffffffffffffffffff168484815181106106f957fe5b602002602001015187876001870181811061071057fe5b9050602002013573ffffffffffffffffffffffffffffffffffffffff1661044e565b82600183018151811061074157fe5b602002602001018181525050808060010191505061068d565b5095945050505050565b60008473ffffffffffffffffffffffffffffffffffffffff166323b872dd8585856040518463ffffffff1660e01b8152600401808473ffffffffffffffffffffffffffffffffffffffff1681526020018373ffffffffffffffffffffffffffffffffffffffff1681526020018281526020019350505050602060405180830381600087803b1580156107f557600080fd5b505af1158015610809573d6000803e3d6000fd5b505050506040513d602081101561081f57600080fd5b81019080805190602001909291905050509050806108a5576040517f08c379a00000000000000000000000000000000000000000000000000000000081526004018080602001828103825260148152602001807f5452414e534645525f46524f4d5f4641494c454400000000000000000000000081525060200191505060405180910390fd5b5050505050565b60005b8351811015610af7576000808483815181106108c757fe5b60200260200101518560018501815181106108de57fe5b60200260200101519150915060006108f68383610c1d565b509050600088600186018151811061090a57fe5b602002602001015190506000808373ffffffffffffffffffffffffffffffffffffffff168673ffffffffffffffffffffffffffffffffffffffff161461095257826000610956565b6000835b91509150600060018b5103881061096d5788610985565b8a600189018151811061097c57fe5b60200260200101515b90508a888151811061099357fe5b602002602001015173ffffffffffffffffffffffffffffffffffffffff1663022c0d9f848484600067ffffffffffffffff811180156109d157600080fd5b506040519080825280601f01601f191660200182016040528015610a045781602001600182028036833780820191505090505b506040518563ffffffff1660e01b8152600401808581526020018481526020018373ffffffffffffffffffffffffffffffffffffffff16815260200180602001828103825283818151815260200191508051906020019080838360005b83811015610a7c578082015181840152602081019050610a61565b50505050905090810190601f168015610aa95780820380516001836020036101000a031916815260200191505b5095505050505050600060405180830381600087803b158015610acb57600080fd5b505af1158015610adf573d6000803e3d6000fd5b505050505050505050505080806001019150506108af565b5050505050565b6000806000610b0d8585610c1d565b5090506000808773ffffffffffffffffffffffffffffffffffffffff16630902f1ac6040518163ffffffff1660e01b815260040160606040518083038186803b158015610b5957600080fd5b505afa158015610b6d573d6000803e3d6000fd5b505050506040513d6060811015610b8357600080fd5b81019080805190602001909291908051906020019092919080519060200190929190505050506dffffffffffffffffffffffffffff1691506dffffffffffffffffffffffffffff1691508273ffffffffffffffffffffffffffffffffffffffff168773ffffffffffffffffffffffffffffffffffffffff1614610c07578082610c0a565b81815b8095508196505050505050935093915050565b6000808273ffffffffffffffffffffffffffffffffffffffff168473ffffffffffffffffffffffffffffffffffffffff161415610cc2576040517f08c379a00000000000000000000000000000000000000000000000000000000081526004018080602001828103825260138152602001807f4944454e544943414c5f4144445245535345530000000000000000000000000081525060200191505060405180910390fd5b8273ffffffffffffffffffffffffffffffffffffffff168473ffffffffffffffffffffffffffffffffffffffff1610610cfc578284610cff565b83835b8092508193505050600073ffffffffffffffffffffffffffffffffffffffff168273ffffffffffffffffffffffffffffffffffffffff161415610daa576040517f08c379a000000000000000000000000000000000000000000000000000000000815260040180806020018281038252600c8152602001807f5a45524f5f41444452455353000000000000000000000000000000000000000081525060200191505060405180910390fd5b925092905056fea264697066735822122083aa60e3703a4be2b8a4d8483cb02cdbf9fb682ee31fbde857ae76e7ce024d8564736f6c63430007030033",
  "linkReferences": {},
  "deployedLinkReferences": {}
}